{
    "contractName": "DIBridgedToken",
    "abi": [
        {
            "inputs": [],
            "stateMutability": "nonpayable",
            "type": "constructor"
        },
        {
            "anonymous": false,
            "inputs": [
                {
                    "indexed": true,
                    "internalType": "address",
                    "name": "owner",
                    "type": "address"
                },
                {
                    "indexed": true,
                    "internalType": "address",
                    "name": "spender",
                    "type": "address"
                },
                {
                    "indexed": false,
                    "internalType": "uint256",
                    "name": "value",
                    "type": "uint256"
                }
            ],
            "name": "Approval",
            "type": "event"
        },
        {
            "anonymous": false,
            "inputs": [
                {
                    "indexed": true,
                    "internalType": "address",
                    "name": "previousOwner",
                    "type": "address"
                },
                {
                    "indexed": true,
                    "internalType": "address",
                    "name": "newOwner",
                    "type": "address"
                }
            ],
            "name": "OwnershipTransferred",
            "type": "event"
        },
        {
            "anonymous": false,
            "inputs": [
                {
                    "indexed": true,
                    "internalType": "address",
                    "name": "from",
                    "type": "address"
                },
                {
                    "indexed": true,
                    "internalType": "address",
                    "name": "to",
                    "type": "address"
                },
                {
                    "indexed": false,
                    "internalType": "uint256",
                    "name": "value",
                    "type": "uint256"
                }
            ],
            "name": "Transfer",
            "type": "event"
        },
        {
            "inputs": [
                {
                    "internalType": "address",
                    "name": "owner",
                    "type": "address"
                },
                {
                    "internalType": "address",
                    "name": "spender",
                    "type": "address"
                }
            ],
            "name": "allowance",
            "outputs": [
                {
                    "internalType": "uint256",
                    "name": "",
                    "type": "uint256"
                }
            ],
            "stateMutability": "view",
            "type": "function"
        },
        {
            "inputs": [
                {
                    "internalType": "address",
                    "name": "spender",
                    "type": "address"
                },
                {
                    "internalType": "uint256",
                    "name": "amount",
                    "type": "uint256"
                }
            ],
            "name": "approve",
            "outputs": [
                {
                    "internalType": "bool",
                    "name": "",
                    "type": "bool"
                }
            ],
            "stateMutability": "nonpayable",
            "type": "function"
        },
        {
            "inputs": [
                {
                    "internalType": "address",
                    "name": "account",
                    "type": "address"
                }
            ],
            "name": "balanceOf",
            "outputs": [
                {
                    "internalType": "uint256",
                    "name": "",
                    "type": "uint256"
                }
            ],
            "stateMutability": "view",
            "type": "function"
        },
        {
            "inputs": [
                {
                    "internalType": "address",
                    "name": "from",
                    "type": "address"
                },
                {
                    "internalType": "uint256",
                    "name": "amount",
                    "type": "uint256"
                }
            ],
            "name": "burn",
            "outputs": [],
            "stateMutability": "nonpayable",
            "type": "function"
        },
        {
            "inputs": [],
            "name": "decimals",
            "outputs": [
                {
                    "internalType": "uint8",
                    "name": "",
                    "type": "uint8"
                }
            ],
            "stateMutability": "view",
            "type": "function"
        },
        {
            "inputs": [
                {
                    "internalType": "address",
                    "name": "spender",
                    "type": "address"
                },
                {
                    "internalType": "uint256",
                    "name": "subtractedValue",
                    "type": "uint256"
                }
            ],
            "name": "decreaseAllowance",
            "outputs": [
                {
                    "internalType": "bool",
                    "name": "",
                    "type": "bool"
                }
            ],
            "stateMutability": "nonpayable",
            "type": "function"
        },
        {
            "inputs": [
                {
                    "internalType": "address",
                    "name": "spender",
                    "type": "address"
                },
                {
                    "internalType": "uint256",
                    "name": "addedValue",
                    "type": "uint256"
                }
            ],
            "name": "increaseAllowance",
            "outputs": [
                {
                    "internalType": "bool",
                    "name": "",
                    "type": "bool"
                }
            ],
            "stateMutability": "nonpayable",
            "type": "function"
        },
        {
            "inputs": [
                {
                    "internalType": "string",
                    "name": "name",
                    "type": "string"
                },
                {
                    "internalType": "string",
                    "name": "symbol",
                    "type": "string"
                },
                {
                    "internalType": "uint8",
                    "name": "decimals_",
                    "type": "uint8"
                },
                {
                    "internalType": "uint32",
                    "name": "originChainId_",
                    "type": "uint32"
                },
                {
                    "internalType": "string",
                    "name": "originSymbol_",
                    "type": "string"
                },
                {
                    "internalType": "address",
                    "name": "tokenRegistry_",
                    "type": "address"
                },
                {
                    "internalType": "address",
                    "name": "owner_",
                    "type": "address"
                }
            ],
            "name": "initialize",
            "outputs": [],
            "stateMutability": "nonpayable",
            "type": "function"
        },
        {
            "inputs": [
                {
                    "internalType": "address",
                    "name": "to",
                    "type": "address"
                },
                {
                    "internalType": "uint256",
                    "name": "amount",
                    "type": "uint256"
                }
            ],
            "name": "mint",
            "outputs": [],
            "stateMutability": "nonpayable",
            "type": "function"
        },
        {
            "inputs": [],
            "name": "name",
            "outputs": [
                {
                    "internalType": "string",
                    "name": "",
                    "type": "string"
                }
            ],
            "stateMutability": "view",
            "type": "function"
        },
        {
            "inputs": [],
            "name": "originChainId",
            "outputs": [
                {
                    "internalType": "uint32",
                    "name": "",
                    "type": "uint32"
                }
            ],
            "stateMutability": "view",
            "type": "function"
        },
        {
            "inputs": [],
            "name": "originSymbol",
            "outputs": [
                {
                    "internalType": "string",
                    "name": "",
                    "type": "string"
                }
            ],
            "stateMutability": "view",
            "type": "function"
        },
        {
            "inputs": [],
            "name": "owner",
            "outputs": [
                {
                    "internalType": "address",
                    "name": "",
                    "type": "address"
                }
            ],
            "stateMutability": "view",
            "type": "function"
        },
        {
            "inputs": [],
            "name": "renounceOwnership",
            "outputs": [],
            "stateMutability": "nonpayable",
            "type": "function"
        },
        {
            "inputs": [],
            "name": "symbol",
            "outputs": [
                {
                    "internalType": "string",
                    "name": "",
                    "type": "string"
                }
            ],
            "stateMutability": "view",
            "type": "function"
        },
        {
            "inputs": [],
            "name": "tokenRegistry",
            "outputs": [
                {
                    "internalType": "address",
                    "name": "",
                    "type": "address"
                }
            ],
            "stateMutability": "view",
            "type": "function"
        },
        {
            "inputs": [],
            "name": "totalSupply",
            "outputs": [
                {
                    "internalType": "uint256",
                    "name": "",
                    "type": "uint256"
                }
            ],
            "stateMutability": "view",
            "type": "function"
        },
        {
            "inputs": [
                {
                    "internalType": "address",
                    "name": "to",
                    "type": "address"
                },
                {
                    "internalType": "uint256",
                    "name": "amount",
                    "type": "uint256"
                }
            ],
            "name": "transfer",
            "outputs": [
                {
                    "internalType": "bool",
                    "name": "",
                    "type": "bool"
                }
            ],
            "stateMutability": "nonpayable",
            "type": "function"
        },
        {
            "inputs": [
                {
                    "internalType": "address",
                    "name": "from",
                    "type": "address"
                },
                {
                    "internalType": "address",
                    "name": "to",
                    "type": "address"
                },
                {
                    "internalType": "uint256",
                    "name": "amount",
                    "type": "uint256"
                }
            ],
            "name": "transferFrom",
            "outputs": [
                {
                    "internalType": "bool",
                    "name": "",
                    "type": "bool"
                }
            ],
            "stateMutability": "nonpayable",
            "type": "function"
        },
        {
            "inputs": [
                {
                    "internalType": "address",
                    "name": "newOwner",
                    "type": "address"
                }
            ],
            "name": "transferOwnership",
            "outputs": [],
            "stateMutability": "nonpayable",
            "type": "function"
        }
    ],
    "bytecode": "60806040523461031e57610011610322565b610019610322565b81516001600160401b03811161022657600354600181811c91168015610314575b602082101461020857601f81116102a6575b50602092601f821160011461024557928192935f9261023a575b50508160011b915f199060031b1c1916176003555b80516001600160401b03811161022657600454600181811c9116801561021c575b602082101461020857601f811161019a575b50602091601f821160011461013a579181925f9261012f575b50508160011b915f199060031b1c1916176004555b60058054336001600160a01b03198216811790925560405191906001600160a01b03167f8be0079c531659141344cd1fd0a4f28419497f9722a3daafe3b4186f6b6457e05f80a361137390816103458239f35b015190505f806100c7565b601f1982169260045f52805f20915f5b8581106101825750836001951061016a575b505050811b016004556100dc565b01515f1960f88460031b161c191690555f808061015c565b9192602060018192868501518155019401920161014a565b818111156100ae5760045f52601f820160051c7f8a35acfbc15ff81a39ae7d344fd709f28e8600b4aa8c65c6b64bfe7fe36bd19b60208410610200575b81601f9101920160051c03905f5b8281106101f35750506100ae565b5f828201556001016101e5565b5f91506101d7565b634e487b7160e01b5f52602260045260245ffd5b90607f169061009c565b634e487b7160e01b5f52604160045260245ffd5b015190505f80610066565b601f1982169360035f52805f20915f5b86811061028e5750836001959610610276575b505050811b0160035561007b565b01515f1960f88460031b161c191690555f8080610268565b91926020600181928685015181550194019201610255565b8181111561004c5760035f52601f820160051c7fc2575a0e9e593c00f959f8c92f12db2869c3395a3b0502d05e2516446f71f85b6020841061030c575b81601f9101920160051c03905f5b8281106102ff57505061004c565b5f828201556001016102f1565b5f91506102e3565b90607f169061003a565b5f80fd5b60405190602082016001600160401b03811183821017610226576040525f825256fe60806040526004361015610011575f80fd5b5f3560e01c806306fdde0314610e15578063095ea7b314610def5780630ac7f56114610dc957806318160ddd14610dac57806321ab75f014610d0757806323b872dd14610c4a578063313ce56714610c2a5780633950935114610bdc57806340c10f1914610b0857806370a0823114610ad1578063715018a614610a765780638da5cb5b14610a4e57806395d89b41146109745780639d23c4c71461094c5780639dc29fac14610814578063a457c2d714610771578063a9059cbb14610740578063d87dcc70146101d8578063dd62ed3e146101885763f2fde38b146100f5575f80fd5b346101845760203660031901126101845761010e610ee4565b61011661129d565b6001600160a01b038116156101305761012e906112f5565b005b60405162461bcd60e51b815260206004820152602660248201527f4f776e61626c653a206e6577206f776e657220697320746865207a65726f206160448201526564647265737360d01b6064820152608490fd5b5f80fd5b34610184576040366003190112610184576101a1610ee4565b6101a9610efa565b6001600160a01b039182165f908152600160209081526040808320949093168252928352819020549051908152f35b346101845760e03660031901126101845760043567ffffffffffffffff811161018457610209903690600401610f6a565b60243567ffffffffffffffff811161018457610229903690600401610f6a565b906044359160ff83168093036101845760643563ffffffff811681036101845760843567ffffffffffffffff811161018457610269903690600401610f6a565b9360a4356001600160a01b03811693908490036101845760c435946001600160a01b0386168603610184576008546102a081610f10565b6107055781519167ffffffffffffffff83116104e5576102c08392610f10565b601f811161068e575b50602090601f831160011461060a575f926105ff575b50508160011b915f199060031b1c1916176008555b80519067ffffffffffffffff82116104e5578190610313600954610f10565b601f8111610588575b50602090601f8311600114610504575f926104f9575b50508160011b915f199060031b1c1916176009555b60ff19600a541617600a556006549063ffffffff60a01b9060a01b169063ffffffff60a01b19161760065582519267ffffffffffffffff84116104e55761038f600754610f10565b601f8111610477575b50602090601f85116001146103f15761012e94915f91836103e6575b50508160011b915f199060031b1c1916176007555b6bffffffffffffffffffffffff60a01b60065416176006556112f5565b0151905085806103b4565b90601f1985169160075f527fa66cc928b5edb82af9bd49922954155ab7b0942694bea4ce44661d9a8736c688925f5b81811061045f575091600193918761012e989410610447575b505050811b016007556103c9565b01515f1960f88460031b161c19169055858080610439565b92936020600181928786015181550195019301610420565b848111156103985760075f52601f850160051c90602086106104dd575b601f82910160051c03905f5b8281106104ae575050610398565b5f8282017fa66cc928b5edb82af9bd49922954155ab7b0942694bea4ce44661d9a8736c68801556001016104a0565b5f9150610494565b634e487b7160e01b5f52604160045260245ffd5b015190508780610332565b60095f9081527f6e1540171b6c0c960b71a7020d9f60077f6af931a8bbf590da0223dacf75c7af9350601f198516905b8181106105705750908460019594939210610558575b505050811b01600955610347565b01515f1960f88460031b161c1916905587808061054a565b92936020600181928786015181550195019301610534565b8281111561031c5790915060095f52601f830160051c90602084106105f7575b9080601f8594930160051c03905f5b8281106105c557505061031c565b5f8183017f6e1540171b6c0c960b71a7020d9f60077f6af931a8bbf590da0223dacf75c7af01558594506001016105b7565b5f91506105a8565b0151905088806102df565b60085f9081527ff3f7a9fe364faab93b216da50a3214154f22a0a2b415b23a84c8169e8b636ee39350601f198516905b818110610676575090846001959493921061065e575b505050811b016008556102f4565b01515f1960f88460031b161c19169055888080610650565b9293602060018192878601518155019501930161063a565b828111156102c95790915060085f52601f830160051c90602084106106fd575b9080601f8594930160051c03905f5b8281106106cb5750506102c9565b5f8183017ff3f7a9fe364faab93b216da50a3214154f22a0a2b415b23a84c8169e8b636ee301558594506001016106bd565b5f91506106ae565b60405162461bcd60e51b8152602060048201526013602482015272105b1c9958591e481a5b9a5d1a585b1a5e9959606a1b6044820152606490fd5b346101845760403660031901126101845761076661075c610ee4565b6024359033611127565b602060405160018152f35b346101845760403660031901126101845761078a610ee4565b60243590335f52600160205260405f2060018060a01b0382165f5260205260405f2054918083106107c15761076692039033611023565b60405162461bcd60e51b815260206004820152602560248201527f45524332303a2064656372656173656420616c6c6f77616e63652062656c6f77604482015264207a65726f60d81b6064820152608490fd5b346101845760403660031901126101845761082d610ee4565b6024359061084660018060a01b03600654163314610fe1565b6001600160a01b031680156108fd57805f525f60205260405f2054918083106108ad576020817fddf252ad1be2c89b69c2b068fc378daa952ba7f163c4a11628f55a4df523b3ef925f958587528684520360408620558060025403600255604051908152a3005b60405162461bcd60e51b815260206004820152602260248201527f45524332303a206275726e20616d6f756e7420657863656564732062616c616e604482015261636560f01b6064820152608490fd5b60405162461bcd60e51b815260206004820152602160248201527f45524332303a206275726e2066726f6d20746865207a65726f206164647265736044820152607360f81b6064820152608490fd5b34610184575f366003190112610184576006546040516001600160a01b039091168152602090f35b34610184575f366003190112610184576040515f60045461099481610f10565b8084529060018116908115610a2a57506001146109cc575b6109c8836109bc81850382610f48565b60405191829182610eba565b0390f35b60045f9081527f8a35acfbc15ff81a39ae7d344fd709f28e8600b4aa8c65c6b64bfe7fe36bd19b939250905b808210610a10575090915081016020016109bc6109ac565b9192600181602092548385880101520191019092916109f8565b60ff191660208086019190915291151560051b840190910191506109bc90506109ac565b34610184575f366003190112610184576005546040516001600160a01b039091168152602090f35b34610184575f36600319011261018457610a8e61129d565b600580546001600160a01b031981169091555f906001600160a01b03167f8be0079c531659141344cd1fd0a4f28419497f9722a3daafe3b4186f6b6457e08280a3005b34610184576020366003190112610184576001600160a01b03610af2610ee4565b165f525f602052602060405f2054604051908152f35b3461018457604036600319011261018457610b21610ee4565b60243590610b3a60018060a01b03600654163314610fe1565b6001600160a01b0316908115610b97577fddf252ad1be2c89b69c2b068fc378daa952ba7f163c4a11628f55a4df523b3ef602082610b7b5f94600254610fc0565b60025584845283825260408420818154019055604051908152a3005b60405162461bcd60e51b815260206004820152601f60248201527f45524332303a206d696e7420746f20746865207a65726f2061646472657373006044820152606490fd5b3461018457604036600319011261018457610766610bf8610ee4565b335f52600160205260405f2060018060a01b0382165f52602052610c2360405f206024359054610fc0565b9033611023565b34610184575f36600319011261018457602060ff600a5416604051908152f35b3461018457606036600319011261018457610c63610ee4565b610c6b610efa565b6001600160a01b0382165f908152600160208181526040808420338552909152909120549260443592918401610ca6575b6107669350611127565b828410610cc257610cbd8361076695033383611023565b610c9c565b60405162461bcd60e51b815260206004820152601d60248201527f45524332303a20696e73756666696369656e7420616c6c6f77616e63650000006044820152606490fd5b34610184575f366003190112610184576040515f600754610d2781610f10565b8084529060018116908115610a2a5750600114610d4e576109c8836109bc81850382610f48565b60075f9081527fa66cc928b5edb82af9bd49922954155ab7b0942694bea4ce44661d9a8736c688939250905b808210610d92575090915081016020016109bc6109ac565b919260018160209254838588010152019101909291610d7a565b34610184575f366003190112610184576020600254604051908152f35b34610184575f36600319011261018457602063ffffffff60065460a01c16604051908152f35b3461018457604036600319011261018457610766610e0b610ee4565b6024359033611023565b34610184575f366003190112610184576040515f600354610e3581610f10565b8084529060018116908115610a2a5750600114610e5c576109c8836109bc81850382610f48565b60035f9081527fc2575a0e9e593c00f959f8c92f12db2869c3395a3b0502d05e2516446f71f85b939250905b808210610ea0575090915081016020016109bc6109ac565b919260018160209254838588010152019101909291610e88565b602060409281835280519182918282860152018484015e5f828201840152601f01601f1916010190565b600435906001600160a01b038216820361018457565b602435906001600160a01b038216820361018457565b90600182811c92168015610f3e575b6020831014610f2a57565b634e487b7160e01b5f52602260045260245ffd5b91607f1691610f1f565b90601f8019910116810190811067ffffffffffffffff8211176104e557604052565b81601f820112156101845780359067ffffffffffffffff82116104e55760405192610f9f601f8401601f191660200185610f48565b8284526020838301011161018457815f926020809301838601378301015290565b91908201809211610fcd57565b634e487b7160e01b5f52601160045260245ffd5b15610fe857565b60405162461bcd60e51b81526020600482015260136024820152724f6e6c7920746f6b656e20726567697374727960681b6044820152606490fd5b6001600160a01b03169081156110d6576001600160a01b03169182156110865760207f8c5be1e5ebec7d5bd14f71427d1e84f3dd0314c0f7b2291e5b200ac8c7c3b92591835f526001825260405f20855f5282528060405f2055604051908152a3565b60405162461bcd60e51b815260206004820152602260248201527f45524332303a20617070726f766520746f20746865207a65726f206164647265604482015261737360f01b6064820152608490fd5b60405162461bcd60e51b8152602060048201526024808201527f45524332303a20617070726f76652066726f6d20746865207a65726f206164646044820152637265737360e01b6064820152608490fd5b6001600160a01b031690811561124a576001600160a01b03169182156111f957815f525f60205260405f20548181106111a557817fddf252ad1be2c89b69c2b068fc378daa952ba7f163c4a11628f55a4df523b3ef92602092855f525f84520360405f2055845f525f825260405f20818154019055604051908152a3565b60405162461bcd60e51b815260206004820152602660248201527f45524332303a207472616e7366657220616d6f756e7420657863656564732062604482015265616c616e636560d01b6064820152608490fd5b60405162461bcd60e51b815260206004820152602360248201527f45524332303a207472616e7366657220746f20746865207a65726f206164647260448201526265737360e81b6064820152608490fd5b60405162461bcd60e51b815260206004820152602560248201527f45524332303a207472616e736665722066726f6d20746865207a65726f206164604482015264647265737360d81b6064820152608490fd5b6005546001600160a01b031633036112b157565b606460405162461bcd60e51b815260206004820152602060248201527f4f776e61626c653a2063616c6c6572206973206e6f7420746865206f776e65726044820152fd5b600580546001600160a01b039283166001600160a01b0319821681179092559091167f8be0079c531659141344cd1fd0a4f28419497f9722a3daafe3b4186f6b6457e05f80a356fea264697066735822122098e37be66075b6673d42b80b47d78a982527e81d54c5d785245973d7fba64a2164736f6c63430008210033",
    "sourcePath": "f:/Work_DI/DI-Network/DI-Contracts/contracts/DIBridgedToken.sol",
    "compiler": {
        "name": "solc",
        "version": "0.8.33+commit.64118f21"
    },
    "functionHashes": {
        "allowance(address,address)": "dd62ed3e",
        "approve(address,uint256)": "095ea7b3",
        "balanceOf(address)": "70a08231",
        "burn(address,uint256)": "9dc29fac",
        "decimals()": "313ce567",
        "decreaseAllowance(address,uint256)": "a457c2d7",
        "increaseAllowance(address,uint256)": "39509351",
        "initialize(string,string,uint8,uint32,string,address,address)": "d87dcc70",
        "mint(address,uint256)": "40c10f19",
        "name()": "06fdde03",
        "originChainId()": "0ac7f561",
        "originSymbol()": "21ab75f0",
        "owner()": "8da5cb5b",
        "renounceOwnership()": "715018a6",
        "symbol()": "95d89b41",
        "tokenRegistry()": "9d23c4c7",
        "totalSupply()": "18160ddd",
        "transfer(address,uint256)": "a9059cbb",
        "transferFrom(address,address,uint256)": "23b872dd",
        "transferOwnership(address)": "f2fde38b"
    },
    "gasEstimates": {
        "creation": {
            "codeDepositCost": "995800",
            "executionCost": "infinite",
            "totalCost": "infinite"
        },
        "external": {
            "allowance(address,address)": "2961",
            "approve(address,uint256)": "24364",
            "balanceOf(address)": "2595",
            "burn(address,uint256)": "53078",
            "decimals()": "2386",
            "decreaseAllowance(address,uint256)": "26948",
            "increaseAllowance(address,uint256)": "26799",
            "initialize(string,string,uint8,uint32,string,address,address)": "infinite",
            "mint(address,uint256)": "52919",
            "name()": "infinite",
            "originChainId()": "2304",
            "originSymbol()": "infinite",
            "owner()": "2514",
            "renounceOwnership()": "28272",
            "symbol()": "infinite",
            "tokenRegistry()": "2558",
            "totalSupply()": "2314",
            "transfer(address,uint256)": "51098",
            "transferFrom(address,address,uint256)": "77384",
            "transferOwnership(address)": "28620"
        }
    }
}