{
    "contractName": "DIGateway",
    "abi": [
        {
            "inputs": [
                {
                    "internalType": "address",
                    "name": "tokenRegistry_",
                    "type": "address"
                },
                {
                    "internalType": "address",
                    "name": "owner_",
                    "type": "address"
                },
                {
                    "internalType": "uint256",
                    "name": "feeInBps_",
                    "type": "uint256"
                },
                {
                    "internalType": "address",
                    "name": "feeReceiver_",
                    "type": "address"
                }
            ],
            "stateMutability": "nonpayable",
            "type": "constructor"
        },
        {
            "anonymous": false,
            "inputs": [
                {
                    "indexed": false,
                    "internalType": "uint256",
                    "name": "feeInBps",
                    "type": "uint256"
                }
            ],
            "name": "BridgeFeeUpdated",
            "type": "event"
        },
        {
            "anonymous": false,
            "inputs": [
                {
                    "indexed": true,
                    "internalType": "bytes32",
                    "name": "txId",
                    "type": "bytes32"
                },
                {
                    "components": [
                        {
                            "internalType": "uint32",
                            "name": "sourceChainId",
                            "type": "uint32"
                        },
                        {
                            "internalType": "uint32",
                            "name": "destChainId",
                            "type": "uint32"
                        },
                        {
                            "internalType": "uint8",
                            "name": "txType",
                            "type": "uint8"
                        },
                        {
                            "internalType": "string",
                            "name": "symbol",
                            "type": "string"
                        },
                        {
                            "internalType": "string",
                            "name": "amount",
                            "type": "string"
                        },
                        {
                            "internalType": "bytes",
                            "name": "payload",
                            "type": "bytes"
                        },
                        {
                            "internalType": "bytes32",
                            "name": "sourceTxHash",
                            "type": "bytes32"
                        },
                        {
                            "internalType": "bytes32",
                            "name": "destTxHash",
                            "type": "bytes32"
                        },
                        {
                            "internalType": "uint32",
                            "name": "timestamp",
                            "type": "uint32"
                        }
                    ],
                    "indexed": false,
                    "internalType": "struct IDIGateway.BridgeTXInfo",
                    "name": "txInfo",
                    "type": "tuple"
                }
            ],
            "name": "BridgeTransactionLogged",
            "type": "event"
        },
        {
            "anonymous": false,
            "inputs": [
                {
                    "indexed": true,
                    "internalType": "bytes32",
                    "name": "commandId",
                    "type": "bytes32"
                },
                {
                    "indexed": false,
                    "internalType": "uint32",
                    "name": "sourceChainId",
                    "type": "uint32"
                },
                {
                    "indexed": true,
                    "internalType": "address",
                    "name": "sourceAddress",
                    "type": "address"
                },
                {
                    "indexed": true,
                    "internalType": "address",
                    "name": "contractAddress",
                    "type": "address"
                },
                {
                    "indexed": false,
                    "internalType": "bytes32",
                    "name": "payloadHash",
                    "type": "bytes32"
                },
                {
                    "indexed": false,
                    "internalType": "bytes32",
                    "name": "sourceTxHash",
                    "type": "bytes32"
                },
                {
                    "indexed": false,
                    "internalType": "uint256",
                    "name": "sourceEventIndex",
                    "type": "uint256"
                }
            ],
            "name": "ContractCallApproved",
            "type": "event"
        },
        {
            "anonymous": false,
            "inputs": [
                {
                    "indexed": true,
                    "internalType": "bytes32",
                    "name": "commandId",
                    "type": "bytes32"
                },
                {
                    "indexed": false,
                    "internalType": "uint32",
                    "name": "sourceChainId",
                    "type": "uint32"
                },
                {
                    "indexed": true,
                    "internalType": "address",
                    "name": "sourceAddress",
                    "type": "address"
                },
                {
                    "indexed": true,
                    "internalType": "address",
                    "name": "contractAddress",
                    "type": "address"
                },
                {
                    "indexed": false,
                    "internalType": "bytes32",
                    "name": "payloadHash",
                    "type": "bytes32"
                },
                {
                    "indexed": false,
                    "internalType": "string",
                    "name": "symbol",
                    "type": "string"
                },
                {
                    "indexed": false,
                    "internalType": "uint256",
                    "name": "amount",
                    "type": "uint256"
                },
                {
                    "indexed": false,
                    "internalType": "bytes32",
                    "name": "sourceTxHash",
                    "type": "bytes32"
                },
                {
                    "indexed": false,
                    "internalType": "uint256",
                    "name": "sourceEventIndex",
                    "type": "uint256"
                }
            ],
            "name": "ContractCallApprovedWithMint",
            "type": "event"
        },
        {
            "anonymous": false,
            "inputs": [
                {
                    "indexed": true,
                    "internalType": "address",
                    "name": "sender",
                    "type": "address"
                },
                {
                    "indexed": false,
                    "internalType": "uint32",
                    "name": "destinationChainId",
                    "type": "uint32"
                },
                {
                    "indexed": false,
                    "internalType": "address",
                    "name": "destinationAddress",
                    "type": "address"
                },
                {
                    "indexed": true,
                    "internalType": "bytes32",
                    "name": "payloadHash",
                    "type": "bytes32"
                },
                {
                    "indexed": false,
                    "internalType": "bytes",
                    "name": "payload",
                    "type": "bytes"
                },
                {
                    "indexed": false,
                    "internalType": "string",
                    "name": "symbol",
                    "type": "string"
                },
                {
                    "indexed": false,
                    "internalType": "uint256",
                    "name": "amount",
                    "type": "uint256"
                },
                {
                    "indexed": false,
                    "internalType": "uint8",
                    "name": "messageType",
                    "type": "uint8"
                }
            ],
            "name": "CrossChainMessage",
            "type": "event"
        },
        {
            "anonymous": false,
            "inputs": [
                {
                    "indexed": true,
                    "internalType": "bytes32",
                    "name": "commandId",
                    "type": "bytes32"
                }
            ],
            "name": "Executed",
            "type": "event"
        },
        {
            "anonymous": false,
            "inputs": [
                {
                    "indexed": true,
                    "internalType": "address",
                    "name": "feeReceiver",
                    "type": "address"
                }
            ],
            "name": "FeeReceiverUpdated",
            "type": "event"
        },
        {
            "anonymous": false,
            "inputs": [
                {
                    "indexed": true,
                    "internalType": "address",
                    "name": "previousOwner",
                    "type": "address"
                },
                {
                    "indexed": true,
                    "internalType": "address",
                    "name": "newOwner",
                    "type": "address"
                }
            ],
            "name": "OwnershipTransferred",
            "type": "event"
        },
        {
            "anonymous": false,
            "inputs": [
                {
                    "indexed": true,
                    "internalType": "address",
                    "name": "relayer",
                    "type": "address"
                }
            ],
            "name": "RelayerAdded",
            "type": "event"
        },
        {
            "anonymous": false,
            "inputs": [
                {
                    "indexed": true,
                    "internalType": "address",
                    "name": "relayer",
                    "type": "address"
                }
            ],
            "name": "RelayerRemoved",
            "type": "event"
        },
        {
            "anonymous": false,
            "inputs": [
                {
                    "indexed": true,
                    "internalType": "string",
                    "name": "symbol",
                    "type": "string"
                }
            ],
            "name": "TokenAdded",
            "type": "event"
        },
        {
            "anonymous": false,
            "inputs": [
                {
                    "indexed": true,
                    "internalType": "address",
                    "name": "token",
                    "type": "address"
                },
                {
                    "indexed": true,
                    "internalType": "address",
                    "name": "user",
                    "type": "address"
                },
                {
                    "indexed": false,
                    "internalType": "uint256",
                    "name": "amount",
                    "type": "uint256"
                },
                {
                    "indexed": false,
                    "internalType": "uint32",
                    "name": "destChainId",
                    "type": "uint32"
                }
            ],
            "name": "TokenBurned",
            "type": "event"
        },
        {
            "anonymous": false,
            "inputs": [
                {
                    "indexed": false,
                    "internalType": "string",
                    "name": "",
                    "type": "string"
                },
                {
                    "indexed": false,
                    "internalType": "address",
                    "name": "",
                    "type": "address"
                },
                {
                    "indexed": false,
                    "internalType": "uint32",
                    "name": "",
                    "type": "uint32"
                },
                {
                    "indexed": false,
                    "internalType": "string",
                    "name": "",
                    "type": "string"
                }
            ],
            "name": "TokenDeployed",
            "type": "event"
        },
        {
            "anonymous": false,
            "inputs": [
                {
                    "indexed": true,
                    "internalType": "address",
                    "name": "token",
                    "type": "address"
                },
                {
                    "indexed": true,
                    "internalType": "address",
                    "name": "user",
                    "type": "address"
                },
                {
                    "indexed": false,
                    "internalType": "uint256",
                    "name": "amount",
                    "type": "uint256"
                },
                {
                    "indexed": false,
                    "internalType": "uint32",
                    "name": "destChainId",
                    "type": "uint32"
                }
            ],
            "name": "TokenLocked",
            "type": "event"
        },
        {
            "anonymous": false,
            "inputs": [
                {
                    "indexed": true,
                    "internalType": "address",
                    "name": "token",
                    "type": "address"
                },
                {
                    "indexed": true,
                    "internalType": "address",
                    "name": "user",
                    "type": "address"
                },
                {
                    "indexed": false,
                    "internalType": "uint256",
                    "name": "amount",
                    "type": "uint256"
                },
                {
                    "indexed": false,
                    "internalType": "uint32",
                    "name": "sourceChainId",
                    "type": "uint32"
                }
            ],
            "name": "TokenMinted",
            "type": "event"
        },
        {
            "anonymous": false,
            "inputs": [
                {
                    "indexed": true,
                    "internalType": "string",
                    "name": "symbol",
                    "type": "string"
                }
            ],
            "name": "TokenRemoved",
            "type": "event"
        },
        {
            "anonymous": false,
            "inputs": [
                {
                    "indexed": true,
                    "internalType": "address",
                    "name": "token",
                    "type": "address"
                },
                {
                    "indexed": true,
                    "internalType": "address",
                    "name": "user",
                    "type": "address"
                },
                {
                    "indexed": false,
                    "internalType": "uint256",
                    "name": "amount",
                    "type": "uint256"
                },
                {
                    "indexed": false,
                    "internalType": "uint32",
                    "name": "sourceChainId",
                    "type": "uint32"
                }
            ],
            "name": "TokenUnlocked",
            "type": "event"
        },
        {
            "inputs": [],
            "name": "COMMAND_APPROVE_CONTRACT_CALL",
            "outputs": [
                {
                    "internalType": "uint256",
                    "name": "",
                    "type": "uint256"
                }
            ],
            "stateMutability": "view",
            "type": "function"
        },
        {
            "inputs": [],
            "name": "COMMAND_APPROVE_CONTRACT_CALL_WITH_MINT",
            "outputs": [
                {
                    "internalType": "uint256",
                    "name": "",
                    "type": "uint256"
                }
            ],
            "stateMutability": "view",
            "type": "function"
        },
        {
            "inputs": [],
            "name": "COMMAND_SEND_TOKEN",
            "outputs": [
                {
                    "internalType": "uint256",
                    "name": "",
                    "type": "uint256"
                }
            ],
            "stateMutability": "view",
            "type": "function"
        },
        {
            "inputs": [],
            "name": "CROSSFI_CHAIN_ID",
            "outputs": [
                {
                    "internalType": "uint32",
                    "name": "",
                    "type": "uint32"
                }
            ],
            "stateMutability": "view",
            "type": "function"
        },
        {
            "inputs": [],
            "name": "MESSAGE_TYPE_CONTRACT_CALL",
            "outputs": [
                {
                    "internalType": "uint8",
                    "name": "",
                    "type": "uint8"
                }
            ],
            "stateMutability": "view",
            "type": "function"
        },
        {
            "inputs": [],
            "name": "MESSAGE_TYPE_CONTRACT_CALL_WITH_TOKEN",
            "outputs": [
                {
                    "internalType": "uint8",
                    "name": "",
                    "type": "uint8"
                }
            ],
            "stateMutability": "view",
            "type": "function"
        },
        {
            "inputs": [],
            "name": "MESSAGE_TYPE_TOKEN_TRANSFER",
            "outputs": [
                {
                    "internalType": "uint8",
                    "name": "",
                    "type": "uint8"
                }
            ],
            "stateMutability": "view",
            "type": "function"
        },
        {
            "inputs": [
                {
                    "internalType": "bytes32",
                    "name": "commandId",
                    "type": "bytes32"
                },
                {
                    "internalType": "uint32",
                    "name": "sourceChainId",
                    "type": "uint32"
                },
                {
                    "internalType": "address",
                    "name": "sourceAddress",
                    "type": "address"
                },
                {
                    "internalType": "address",
                    "name": "contractAddress",
                    "type": "address"
                },
                {
                    "internalType": "bytes",
                    "name": "payload",
                    "type": "bytes"
                }
            ],
            "name": "_safeExecuteCall",
            "outputs": [],
            "stateMutability": "nonpayable",
            "type": "function"
        },
        {
            "inputs": [
                {
                    "internalType": "bytes32",
                    "name": "commandId",
                    "type": "bytes32"
                },
                {
                    "internalType": "uint32",
                    "name": "sourceChainId",
                    "type": "uint32"
                },
                {
                    "internalType": "address",
                    "name": "sourceAddress",
                    "type": "address"
                },
                {
                    "internalType": "address",
                    "name": "contractAddress",
                    "type": "address"
                },
                {
                    "internalType": "bytes",
                    "name": "payload",
                    "type": "bytes"
                },
                {
                    "internalType": "string",
                    "name": "symbol",
                    "type": "string"
                },
                {
                    "internalType": "uint256",
                    "name": "amount",
                    "type": "uint256"
                }
            ],
            "name": "_safeExecuteCallWithToken",
            "outputs": [],
            "stateMutability": "nonpayable",
            "type": "function"
        },
        {
            "inputs": [
                {
                    "internalType": "uint32",
                    "name": "chainId",
                    "type": "uint32"
                }
            ],
            "name": "addChain",
            "outputs": [],
            "stateMutability": "nonpayable",
            "type": "function"
        },
        {
            "inputs": [
                {
                    "internalType": "address",
                    "name": "relayer",
                    "type": "address"
                }
            ],
            "name": "addRelayer",
            "outputs": [],
            "stateMutability": "nonpayable",
            "type": "function"
        },
        {
            "inputs": [
                {
                    "internalType": "string",
                    "name": "symbol",
                    "type": "string"
                },
                {
                    "internalType": "address",
                    "name": "contractAddress",
                    "type": "address"
                },
                {
                    "internalType": "string",
                    "name": "name",
                    "type": "string"
                },
                {
                    "internalType": "uint8",
                    "name": "decimals",
                    "type": "uint8"
                },
                {
                    "internalType": "bool",
                    "name": "isBridged",
                    "type": "bool"
                }
            ],
            "name": "addToken",
            "outputs": [],
            "stateMutability": "nonpayable",
            "type": "function"
        },
        {
            "inputs": [
                {
                    "internalType": "bytes32",
                    "name": "",
                    "type": "bytes32"
                }
            ],
            "name": "approvedPayloads",
            "outputs": [
                {
                    "internalType": "bytes",
                    "name": "",
                    "type": "bytes"
                }
            ],
            "stateMutability": "view",
            "type": "function"
        },
        {
            "inputs": [],
            "name": "bridgeTokenRegistry",
            "outputs": [
                {
                    "internalType": "contract DIBridgedTokenRegistry",
                    "name": "",
                    "type": "address"
                }
            ],
            "stateMutability": "view",
            "type": "function"
        },
        {
            "inputs": [
                {
                    "internalType": "bytes32",
                    "name": "",
                    "type": "bytes32"
                }
            ],
            "name": "bridgeTransactions",
            "outputs": [
                {
                    "internalType": "uint32",
                    "name": "sourceChainId",
                    "type": "uint32"
                },
                {
                    "internalType": "uint32",
                    "name": "destChainId",
                    "type": "uint32"
                },
                {
                    "internalType": "uint8",
                    "name": "txType",
                    "type": "uint8"
                },
                {
                    "internalType": "string",
                    "name": "symbol",
                    "type": "string"
                },
                {
                    "internalType": "string",
                    "name": "amount",
                    "type": "string"
                },
                {
                    "internalType": "bytes",
                    "name": "payload",
                    "type": "bytes"
                },
                {
                    "internalType": "bytes32",
                    "name": "sourceTxHash",
                    "type": "bytes32"
                },
                {
                    "internalType": "bytes32",
                    "name": "destTxHash",
                    "type": "bytes32"
                },
                {
                    "internalType": "uint32",
                    "name": "timestamp",
                    "type": "uint32"
                }
            ],
            "stateMutability": "view",
            "type": "function"
        },
        {
            "inputs": [
                {
                    "internalType": "uint32",
                    "name": "destinationChainId",
                    "type": "uint32"
                },
                {
                    "internalType": "address",
                    "name": "destinationContractAddress",
                    "type": "address"
                },
                {
                    "internalType": "bytes",
                    "name": "payload",
                    "type": "bytes"
                }
            ],
            "name": "callContract",
            "outputs": [],
            "stateMutability": "nonpayable",
            "type": "function"
        },
        {
            "inputs": [
                {
                    "internalType": "uint32",
                    "name": "destinationChainId",
                    "type": "uint32"
                },
                {
                    "internalType": "address",
                    "name": "destinationContractAddress",
                    "type": "address"
                },
                {
                    "internalType": "bytes",
                    "name": "payload",
                    "type": "bytes"
                },
                {
                    "internalType": "string",
                    "name": "symbol",
                    "type": "string"
                },
                {
                    "internalType": "uint256",
                    "name": "amount",
                    "type": "uint256"
                }
            ],
            "name": "callContractWithToken",
            "outputs": [],
            "stateMutability": "nonpayable",
            "type": "function"
        },
        {
            "inputs": [
                {
                    "internalType": "bytes32",
                    "name": "",
                    "type": "bytes32"
                }
            ],
            "name": "commandExecuted",
            "outputs": [
                {
                    "internalType": "bool",
                    "name": "",
                    "type": "bool"
                }
            ],
            "stateMutability": "view",
            "type": "function"
        },
        {
            "inputs": [
                {
                    "internalType": "string",
                    "name": "name",
                    "type": "string"
                },
                {
                    "internalType": "string",
                    "name": "symbol",
                    "type": "string"
                },
                {
                    "internalType": "uint8",
                    "name": "decimals",
                    "type": "uint8"
                },
                {
                    "internalType": "uint32",
                    "name": "originChainId",
                    "type": "uint32"
                },
                {
                    "internalType": "string",
                    "name": "originSymbol",
                    "type": "string"
                }
            ],
            "name": "deployToken",
            "outputs": [
                {
                    "internalType": "address",
                    "name": "token",
                    "type": "address"
                }
            ],
            "stateMutability": "nonpayable",
            "type": "function"
        },
        {
            "inputs": [
                {
                    "internalType": "bytes32",
                    "name": "commandId",
                    "type": "bytes32"
                },
                {
                    "components": [
                        {
                            "internalType": "uint256",
                            "name": "commandType",
                            "type": "uint256"
                        },
                        {
                            "internalType": "bytes",
                            "name": "data",
                            "type": "bytes"
                        }
                    ],
                    "internalType": "struct IDIGateway.Command[]",
                    "name": "commands",
                    "type": "tuple[]"
                },
                {
                    "internalType": "bytes",
                    "name": "signature",
                    "type": "bytes"
                }
            ],
            "name": "execute",
            "outputs": [],
            "stateMutability": "nonpayable",
            "type": "function"
        },
        {
            "inputs": [],
            "name": "feeInBps",
            "outputs": [
                {
                    "internalType": "uint256",
                    "name": "",
                    "type": "uint256"
                }
            ],
            "stateMutability": "view",
            "type": "function"
        },
        {
            "inputs": [],
            "name": "feeReceiver",
            "outputs": [
                {
                    "internalType": "address",
                    "name": "",
                    "type": "address"
                }
            ],
            "stateMutability": "view",
            "type": "function"
        },
        {
            "inputs": [],
            "name": "getAllRelayers",
            "outputs": [
                {
                    "internalType": "address[]",
                    "name": "",
                    "type": "address[]"
                }
            ],
            "stateMutability": "view",
            "type": "function"
        },
        {
            "inputs": [],
            "name": "getBridgeFee",
            "outputs": [
                {
                    "internalType": "uint256",
                    "name": "",
                    "type": "uint256"
                }
            ],
            "stateMutability": "view",
            "type": "function"
        },
        {
            "inputs": [
                {
                    "internalType": "bytes32",
                    "name": "txId",
                    "type": "bytes32"
                }
            ],
            "name": "getBridgeTransaction",
            "outputs": [
                {
                    "components": [
                        {
                            "internalType": "uint32",
                            "name": "sourceChainId",
                            "type": "uint32"
                        },
                        {
                            "internalType": "uint32",
                            "name": "destChainId",
                            "type": "uint32"
                        },
                        {
                            "internalType": "uint8",
                            "name": "txType",
                            "type": "uint8"
                        },
                        {
                            "internalType": "string",
                            "name": "symbol",
                            "type": "string"
                        },
                        {
                            "internalType": "string",
                            "name": "amount",
                            "type": "string"
                        },
                        {
                            "internalType": "bytes",
                            "name": "payload",
                            "type": "bytes"
                        },
                        {
                            "internalType": "bytes32",
                            "name": "sourceTxHash",
                            "type": "bytes32"
                        },
                        {
                            "internalType": "bytes32",
                            "name": "destTxHash",
                            "type": "bytes32"
                        },
                        {
                            "internalType": "uint32",
                            "name": "timestamp",
                            "type": "uint32"
                        }
                    ],
                    "internalType": "struct IDIGateway.BridgeTXInfo",
                    "name": "",
                    "type": "tuple"
                }
            ],
            "stateMutability": "view",
            "type": "function"
        },
        {
            "inputs": [],
            "name": "getSupportedTokens",
            "outputs": [
                {
                    "components": [
                        {
                            "internalType": "address",
                            "name": "token",
                            "type": "address"
                        },
                        {
                            "internalType": "string",
                            "name": "name",
                            "type": "string"
                        },
                        {
                            "internalType": "string",
                            "name": "symbol",
                            "type": "string"
                        },
                        {
                            "internalType": "uint8",
                            "name": "decimals",
                            "type": "uint8"
                        },
                        {
                            "internalType": "bool",
                            "name": "supported",
                            "type": "bool"
                        },
                        {
                            "internalType": "bool",
                            "name": "isBridged",
                            "type": "bool"
                        }
                    ],
                    "internalType": "struct IDIGateway.TokenInfo[]",
                    "name": "tokens",
                    "type": "tuple[]"
                }
            ],
            "stateMutability": "view",
            "type": "function"
        },
        {
            "inputs": [
                {
                    "internalType": "string",
                    "name": "symbol",
                    "type": "string"
                }
            ],
            "name": "getTokenAddress",
            "outputs": [
                {
                    "internalType": "address",
                    "name": "",
                    "type": "address"
                }
            ],
            "stateMutability": "view",
            "type": "function"
        },
        {
            "inputs": [
                {
                    "internalType": "bytes32",
                    "name": "txId",
                    "type": "bytes32"
                }
            ],
            "name": "isCommandExecuted",
            "outputs": [
                {
                    "internalType": "bool",
                    "name": "",
                    "type": "bool"
                }
            ],
            "stateMutability": "view",
            "type": "function"
        },
        {
            "inputs": [
                {
                    "internalType": "string",
                    "name": "symbol",
                    "type": "string"
                }
            ],
            "name": "isTokenSupported",
            "outputs": [
                {
                    "internalType": "bool",
                    "name": "",
                    "type": "bool"
                }
            ],
            "stateMutability": "view",
            "type": "function"
        },
        {
            "inputs": [
                {
                    "internalType": "bytes32",
                    "name": "txId",
                    "type": "bytes32"
                },
                {
                    "internalType": "uint32",
                    "name": "sourceChainId",
                    "type": "uint32"
                },
                {
                    "internalType": "uint32",
                    "name": "destChainId",
                    "type": "uint32"
                },
                {
                    "internalType": "uint8",
                    "name": "txType",
                    "type": "uint8"
                },
                {
                    "internalType": "string",
                    "name": "symbol",
                    "type": "string"
                },
                {
                    "internalType": "string",
                    "name": "amount",
                    "type": "string"
                },
                {
                    "internalType": "bytes",
                    "name": "payload",
                    "type": "bytes"
                },
                {
                    "internalType": "bytes32",
                    "name": "sourceTxHash",
                    "type": "bytes32"
                },
                {
                    "internalType": "bytes32",
                    "name": "destTxHash",
                    "type": "bytes32"
                }
            ],
            "name": "logBridgeTransaction",
            "outputs": [],
            "stateMutability": "nonpayable",
            "type": "function"
        },
        {
            "inputs": [],
            "name": "owner",
            "outputs": [
                {
                    "internalType": "address",
                    "name": "",
                    "type": "address"
                }
            ],
            "stateMutability": "view",
            "type": "function"
        },
        {
            "inputs": [
                {
                    "internalType": "address",
                    "name": "relayer",
                    "type": "address"
                }
            ],
            "name": "removeRelayer",
            "outputs": [],
            "stateMutability": "nonpayable",
            "type": "function"
        },
        {
            "inputs": [
                {
                    "internalType": "string",
                    "name": "symbol",
                    "type": "string"
                }
            ],
            "name": "removeToken",
            "outputs": [],
            "stateMutability": "nonpayable",
            "type": "function"
        },
        {
            "inputs": [],
            "name": "renounceOwnership",
            "outputs": [],
            "stateMutability": "nonpayable",
            "type": "function"
        },
        {
            "inputs": [
                {
                    "internalType": "uint32",
                    "name": "destinationChainId",
                    "type": "uint32"
                },
                {
                    "internalType": "address",
                    "name": "destinationAddress",
                    "type": "address"
                },
                {
                    "internalType": "string",
                    "name": "symbol",
                    "type": "string"
                },
                {
                    "internalType": "uint256",
                    "name": "amount",
                    "type": "uint256"
                }
            ],
            "name": "sendToken",
            "outputs": [],
            "stateMutability": "nonpayable",
            "type": "function"
        },
        {
            "inputs": [
                {
                    "internalType": "uint256",
                    "name": "_feeInBps",
                    "type": "uint256"
                }
            ],
            "name": "setBridgeFee",
            "outputs": [],
            "stateMutability": "nonpayable",
            "type": "function"
        },
        {
            "inputs": [
                {
                    "internalType": "address",
                    "name": "_feeReceiver",
                    "type": "address"
                }
            ],
            "name": "setFeeReceiver",
            "outputs": [],
            "stateMutability": "nonpayable",
            "type": "function"
        },
        {
            "inputs": [
                {
                    "internalType": "uint32",
                    "name": "",
                    "type": "uint32"
                }
            ],
            "name": "supportedChains",
            "outputs": [
                {
                    "internalType": "bool",
                    "name": "",
                    "type": "bool"
                }
            ],
            "stateMutability": "view",
            "type": "function"
        },
        {
            "inputs": [
                {
                    "internalType": "string",
                    "name": "",
                    "type": "string"
                }
            ],
            "name": "supportedTokens",
            "outputs": [
                {
                    "internalType": "address",
                    "name": "token",
                    "type": "address"
                },
                {
                    "internalType": "string",
                    "name": "name",
                    "type": "string"
                },
                {
                    "internalType": "string",
                    "name": "symbol",
                    "type": "string"
                },
                {
                    "internalType": "uint8",
                    "name": "decimals",
                    "type": "uint8"
                },
                {
                    "internalType": "bool",
                    "name": "supported",
                    "type": "bool"
                },
                {
                    "internalType": "bool",
                    "name": "isBridged",
                    "type": "bool"
                }
            ],
            "stateMutability": "view",
            "type": "function"
        },
        {
            "inputs": [
                {
                    "internalType": "uint256",
                    "name": "",
                    "type": "uint256"
                }
            ],
            "name": "tokenList",
            "outputs": [
                {
                    "internalType": "string",
                    "name": "",
                    "type": "string"
                }
            ],
            "stateMutability": "view",
            "type": "function"
        },
        {
            "inputs": [
                {
                    "internalType": "address",
                    "name": "newOwner",
                    "type": "address"
                }
            ],
            "name": "transferOwnership",
            "outputs": [],
            "stateMutability": "nonpayable",
            "type": "function"
        },
        {
            "inputs": [
                {
                    "internalType": "address",
                    "name": "",
                    "type": "address"
                }
            ],
            "name": "whitelisted",
            "outputs": [
                {
                    "internalType": "bool",
                    "name": "",
                    "type": "bool"
                }
            ],
            "stateMutability": "view",
            "type": "function"
        }
    ],
    "bytecode": "60803461021757601f613b9a38819003918201601f19168301916001600160401b0383118484101761021b57808492608094604052833981010312610217576100478161022f565b6100966100566020840161022f565b61006760606040860151950161022f565b9261007133610243565b600180546001600160a01b0319166001600160a01b0392909216919091179055610243565b61271082116101d2576001600160a01b031690811561018d57600b55600c80546001600160a01b03191691909117905560076020527fb39221ace053465ec3453ce2b36430bd138b997ecea25c1043da0c366812b828805460ff1990811660019081179092557fff447edf4e1c9450b5dae138089da2855247c4e0890d53e4eaf79e09eb9b4bef80548216831790557f65420a8d28339aeca441a0c94a464f6387b468f3f5ea5c247a6df59a5f7b8866805482168317905561103e5f527f8e0be5bbf2bb79ecaa6054b3b6d5e51963666ce6c5f3690b506a5cf3cdf11c3f80549091169091179055604051613910908161028a8239f35b60405162461bcd60e51b815260206004820152601460248201527f496e76616c6964206665652072656365697665720000000000000000000000006044820152606490fd5b60405162461bcd60e51b815260206004820152601660248201527f4665652063616e6e6f74206578636565642031303025000000000000000000006044820152606490fd5b5f80fd5b634e487b7160e01b5f52604160045260245ffd5b51906001600160a01b038216820361021757565b5f80546001600160a01b039283166001600160a01b03198216811783559216907f8be0079c531659141344cd1fd0a4f28419497f9722a3daafe3b4186f6b6457e09080a356fe6080806040526004361015610012575f80fd5b5f3560e01c90816224a1b81461289b57508063082711b2146124675780630d3652ec1461283b5780631f4559221461263d57806321cf02c614610965578063248514dd1461260357806328ca3c91146125db578063307d624e1461078b57806336427a5114612481578063516745aa146124675780635fc79880146122c757806360f0a5ac14612210578063613d4159146120f55780636c63f971146120195780636e00f5d814610980578063715018a614611fc257806377e8ac6f14611533578063848fd4501461151757806385659de114610e4357806389919cdd1461144c5780638d8d83b81461105a5780638da5cb5b14611033578063903d8a5014610f3e578063998cdf8314610eaa5780639ead722214610e60578063a0a7299b14610e43578063a332413c14610d3f578063b1f10fd214610a16578063b3f00674146109ee578063bc527b411461099b578063bd6e167214610980578063c087497614610965578063c3d0608c1461081b578063c4091236146107ba578063d26ff2101461078b578063d3c7c2c71461059a578063d936547e1461055d578063dd39f00d146104a0578063e7001c60146103e1578063eaf8ddfe14610357578063efdcd974146102b35763f2fde38b146101e9575f80fd5b346102af5760203660031901126102af57610202612b49565b61020a613152565b6001600160a01b0316801561025b575f80546001600160a01b03198116831782556001600160a01b0316907f8be0079c531659141344cd1fd0a4f28419497f9722a3daafe3b4186f6b6457e09080a3005b60405162461bcd60e51b815260206004820152602660248201527f4f776e61626c653a206e6577206f776e657220697320746865207a65726f206160448201526564647265737360d01b6064820152608490fd5b5f80fd5b346102af5760203660031901126102af576102cc612b49565b6102d4613152565b6001600160a01b0316801561031b57600c80546001600160a01b031916821790557f27aae5db36d94179909d019ae0b1ac7c16d96d953148f63c0f6a0a9c8ead79ee5f80a2005b60405162461bcd60e51b815260206004820152601460248201527324b73b30b634b2103332b2903932b1b2b4bb32b960611b6044820152606490fd5b346102af5760203660031901126102af5763ffffffff610375612b0d565b61037d613152565b16805f52600760205260ff60405f2054166103ac575f908152600760205260409020805460ff19166001179055005b60405162461bcd60e51b815260206004820152600d60248201526c105b1c9958591e481859191959609a1b6044820152606490fd5b346102af575f3660031901126102af576040518060206002549283815201809260025f527f405787fa12a823e0f2b7631cc41b3ba8828b3321ca811111fa75cd3aa3bb5ace905f5b81811061048a575050508161043f910382612a8d565b604051918291602083019060208452518091526040830191905f5b818110610468575050500390f35b82516001600160a01b031684528594506020938401939092019160010161045a565b8254845260209093019260019283019201610429565b346102af5760203660031901126102af576104b9612b49565b6104c1613152565b6001600160a01b03165f8181526004602052604090205460ff1661052657805f52600460205260405f20600160ff198254161790556104ff81613421565b507f03580ee9f53a62b7cb409a2cb56f9be87747dd15017afc5cef6eef321e4fb2c55f80a2005b60405162461bcd60e51b815260206004820152600f60248201526e20b63932b0b23c903932b630bcb2b960891b6044820152606490fd5b346102af5760203660031901126102af576001600160a01b0361057e612b49565b165f526004602052602060ff60405f2054166040519015158152f35b346102af575f3660031901126102af57600a546105b681612cf4565b906105c46040519283612a8d565b808252601f196105d382612cf4565b015f5b81811061074e5750505f5b8181106106a357826040518091602082016020835281518091526040830190602060408260051b8601019301915f905b82821061062057505050500390f35b919360019193955060208091603f19898203018552875190848060a01b03825116815260a0806106726106608686015160c08887015260c0860190612991565b60408601518582036040870152612991565b9360ff6060820151166060850152608081015115156080850152015115159101529601920192018594939192610611565b806020806106bb6106b5600195612d0b565b50612bd3565b604051928184925191829101835e8101600881520301902060ff6003604051926106e484612a72565b858060a01b0381541684526106fa868201612bd3565b602085015261070b60028201612bd3565b604085015201548181166060840152818160081c161515608084015260101c16151560a082015261073c82866130d7565b5261074781856130d7565b50016105e1565b60209060405161075d81612a72565b5f8152606083820152606060408201525f60608201525f60808201525f60a0820152828287010152016105d6565b346102af5760203660031901126102af576004355f526005602052602060ff60405f2054166040519015158152f35b346102af5760203660031901126102af576004356001600160401b0381116102af576107ec6020913690600401612ac9565b8160405191805191829101835e600890820190815281900382019020546040516001600160a01b039091168152f35b346102af5760e03660031901126102af57610834612b20565b61083c612b5f565b610844612b75565b6084356001600160401b0381116102af57610863903690600401612ac9565b9260a435926001600160401b0384116102af575f9461090c8695926108f661089088953690600401612ac9565b61089b3033146130eb565b6108e460405195869463ffffffff602087019a63cf0c371d60e01b8c52600435602489015216604487015260018060a01b0316606486015260c0608486015260e4850190612991565b8381036023190160a485015290612991565b60c43560c483015203601f198101835282612a8d565b51925af1610918613123565b501561092057005b60405162461bcd60e51b815260206004820152601f60248201527f436f6e74726163742063616c6c207769746820746f6b656e206661696c6564006044820152606490fd5b346102af575f3660031901126102af57602060405160028152f35b346102af575f3660031901126102af57602060405160018152f35b346102af5760203660031901126102af576004355f5260096020526109ea6109cf6109d660405f2060405192838092612c73565b0382612a8d565b604051918291602083526020830190612991565b0390f35b346102af575f3660031901126102af57600c546040516001600160a01b039091168152602090f35b346102af576101203660031901126102af57600435610a33612b20565b60443563ffffffff81168091036102af57610a4c612b8b565b6084356001600160401b0381116102af57610a6b903690600401612ac9565b60a4356001600160401b0381116102af57610a8a903690600401612ac9565b60c4356001600160401b0381116102af57610aa9903690600401612ac9565b335f526004602052610ac160ff60405f20541661309c565b61103e4603610d0b5763ffffffff60405196610adc88612a56565b1686526020860194855260ff6040870194168452606086019283526080860191825260a08601908152610b9960c087019260e4358452610b8f60e08901956101043587526101008a019763ffffffff421689528b5f52600660205260405f209963ffffffff808d51161663ffffffff198c5416178b55519067ffffffff0000000068ff00000000000000008c54925160401b169260201b169068ffffffffff000000001916171789555160018901612fa6565b5160028701612fa6565b51805160038601916001600160401b038211610cf757610bc382610bbd8554612b9b565b85612da4565b602090601f8311600114610c62579463ffffffff94600694610c258588967f689176cb948ca25a70bf7b5c6c2f65b339736177d5d7c52b4085f190f87468129d9b96610c529d9b5f92610c57575b50508160011b915f199060031b1c19161790565b90555b51600487015551600586015551169201911663ffffffff19825416179055604051918291826129b5565b0390a2005b015190508f80610c11565b90601f19831691845f52815f20925f5b818110610cdf5750946001857f689176cb948ca25a70bf7b5c6c2f65b339736177d5d7c52b4085f190f87468129c9a95610c529c9a9563ffffffff9a958b9960069b10610cc7575b505050811b019055610c28565b01515f1960f88460031b161c191690558e8080610cba565b92936020600181928786015181550195019301610c72565b634e487b7160e01b5f52604160045260245ffd5b60405162461bcd60e51b815260206004820152600c60248201526b4f6e6c792043726f7373466960a01b6044820152606490fd5b346102af5760a03660031901126102af57610d58612b20565b610d60612b5f565b610d68612b75565b608435926001600160401b0384116102af575f809493610df3610d9083963690600401612ac9565b91610d9c3033146130eb565b610de560405193849263ffffffff602085019863c546450b60e01b8a52600435602487015216604485015260018060a01b031660648401526080608484015260a4830190612991565b03601f198101835282612a8d565b51925af1610dff613123565b5015610e0757005b60405162461bcd60e51b815260206004820152601460248201527310dbdb9d1c9858dd0818d85b1b0819985a5b195960621b6044820152606490fd5b346102af575f3660031901126102af576020600b54604051908152f35b346102af5760203660031901126102af57600435600a548110156102af57610e8790612d0b565b610e97576109d66109ea91612bd3565b634e487b7160e01b5f525f60045260245ffd5b346102af5760203660031901126102af57600435610ec6613152565b6127108111610f00576020817f42dfb00d085d601e55327921154ae76c1b24270b026c5a0c51caee18eb4c401f92600b55604051908152a1005b60405162461bcd60e51b81526020600482015260166024820152754665652063616e6e6f7420657863656564203130302560501b6044820152606490fd5b346102af5760603660031901126102af57610f57612b0d565b610f5f612b33565b906044356001600160401b0381116102af5761100663ffffffff610fa87ffb221ea26ff8d39542d6ce490a50b051d32f1059f001142eac494913bf4774cc933690600401612ac9565b931692835f526007602052610fc360ff60405f205416612edc565b6001600160a01b03851694610fe2908615159081611028575b50612f67565b8051602082012094604051948552602085015260c0604085015260c0840190612991565b915f81840393846060840152525f60808201525f60a0820152602033930190a3005b90503b151587610fdc565b346102af575f3660031901126102af575f546040516001600160a01b039091168152602090f35b346102af5760a03660031901126102af576004356001600160401b0381116102af5761108a903690600401612ac9565b6024356001600160401b0381116102af576110a9903690600401612ac9565b9060443560ff81168091036102af576064359163ffffffff83168093036102af576084356001600160401b0381116102af576110e9903690600401612ac9565b906110f2613152565b6040519185519260208701938085835e60089082019081528190036020019020546001600160a01b03166114185760015460405163f36e95a760e01b815260a060048201529060209082906001600160a01b0316815f8161118d61116f8e61115d60a485018d612991565b84810360031901602486015290612991565b8c60448401528d606484015260031983820301608484015289612991565b03925af190811561140d575f916113a9575b507fe60a549c32df188192a181c0c87178307ddf8c9436016a2dbde1f44e6a3ab07a916111fe604051928392608084526111dc608085018c612991565b9160018060a01b0316998a602086015260408501528382036060850152612991565b0390a1611209613152565b60ff600360405160208189518088835e81016008815203019020015460081c1661136457849160ff60036112e8936112bf6040519161124783612a72565b898352602083019081526112b56040840191898352606085019a8b52608085019760018952602060a087019b60018d52604051928391518091835e600890820190815203019020945185546001600160a01b0319166001600160a01b03919091161785555160018501612fa6565b5160028301612fa6565b0194511660ff19855416178455511515839061ff00825491151560081b169061ff001916179055565b51815462ff0000191690151560101b62ff000016179055600a54600160401b811015610cf75780600161131e9201600a55612d0b565b610e97578261133260209461133793612fa6565b612ec0565b90604051917fdfc8b21b155f37b22bc6e8f14a4a9d1619c07bf564133b6488758981f952e5565f80a28152f35b60405162461bcd60e51b815260206004820152601760248201527f546f6b656e20616c726561647920737570706f727465640000000000000000006044820152606490fd5b90506020813d602011611405575b816113c460209383612a8d565b810103126102af5751906001600160a01b03821682036102af57907fe60a549c32df188192a181c0c87178307ddf8c9436016a2dbde1f44e6a3ab07a61119f565b3d91506113b7565b6040513d5f823e3d90fd5b60405162461bcd60e51b815260206004820152600c60248201526b546f6b656e2065786973747360a01b6044820152606490fd5b346102af5760203660031901126102af576004356001600160401b0381116102af57602061147f81923690600401612ac9565b604051928184925191829101835e60089082019081520301902080546001600160a01b03166114b060018301612bd3565b9160ff6114f260036114c460028501612bd3565b930154926114e4604051968796875260c0602088015260c0870190612991565b908582036040870152612991565b918181166060850152818160081c161515608085015260101c16151560a08301520390f35b346102af575f3660031901126102af57602060405161103e8152f35b346102af5760603660031901126102af576024356001600160401b0381116102af57366023820112156102af57806004013561156e81612cf4565b9161157c6040519384612a8d565b81835260208301906024829360051b820101903682116102af5760248101925b828410611f475785856044356001600160401b0381116102af576115c4903690600401612ac9565b90335f5260046020526115dd60ff60405f20541661309c565b6004355f52600560205260ff60405f205416611f02576004355f52600560205260405f20600160ff1982541617905560405160208101916060820160043584526040808401528551809152608083019060808160051b85010192915f905b828210611ec657886116b16116a98a8a8a61165f818c03601f198101835282612a8d565b51902060405160208101917f19457468657265756d205369676e6564204d6573736167653a0a3332000000008352603c820152603c81526116a1605c82612a8d565b5190206134b2565b9190916134e7565b6001600160a01b03165f9081526004602052604090205460ff1615611e90575f5b8151811015611e67576116e581836130d7565b5180518061192357506020015190815182019160e0818403126102af5761170e602082016133cd565b9061171b60408201613375565b9061172860608201613375565b9060808101519560a08201519060c08301519260e0810151916001600160401b0383116102af57611760926020809201920101613389565b805160208201206001600160a01b03948516969195909416936117849089146133de565b6004355f52600960205260405f20928551926001600160401b038411610cf75784846117bc88966117b68c9954612b9b565b84612da4565b6020601f82116001146118bc5790806117e9925f916118b1575b508160011b915f199060031b1c19161790565b90555b63ffffffff6040519316998a84526020840152604083015260608201527f49b87ae0b2b4a10d0728b233f3015c6a5e4e9b8d74f8aadafde4e05dbe13b1df608060043592a4823b611846575b505050600191505b016116d2565b303b156102af5760019461188f5f9360405195869485946328cc904f60e21b8652600435600487015260248601526044850152606484015260a0608484015260a4830190612991565b038183305af16118a1575b8080611838565b5f6118ab91612a8d565b8361189a565b90508a01518f6117d6565b601f19821690835f52805f20915f5b8c82821061190657505090836001949392106118ee575b5050811b0190556117ec565b8b01515f1960f88460031b161c191690558e806118e2565b83015184558d9a508b9950600190930192602092830192016118cb565b91929160018103611d0957506020015191825183019061014084602084019303126102af57611954602085016133cd565b9161196160408601613375565b9061196e60608701613375565b91608087015160a08801516001600160401b0381116102af57836020611996928b0101613389565b9260c08901519060e08a0151976101008b0151916101208c0151906101408d0151906001600160401b0382116102af5760206119dc926001600160401b039f0101613389565b996119ef868c60208151910120146133de565b6004355f52600960205260405f208b519d8e11610cf757611a1a8e611a148354612b9b565b83612da4565b8d601f60209111600114611c95578e8d9e9f611a56928c9d9e9f5f9d9798999a9b9c9d92610c575750508160011b915f199060031b1c19161790565b90555b611a6d6001600160a01b038b16151561305e565b611a78861515612f1c565b611aa460ff60036040516020818188519801978089835e81016008815203019020015460081c16612d4c565b60ff60036040518b518086835e8101906008825260208160018060a01b03930301902054169360208c604051928391518091835e81016008815203019020015460101c165f14611c5557611b02866001600160a01b038c16846137cf565b80611c36575b50505b63ffffffff604051921694858352602083015260c06040830152611b3260c0830188612991565b60608301859052608083019390935260a08201526001600160a01b038781169290861691600435917f2a0832d68b33047ad86c33af0ba6548d51ab2dc76744e02dbe5beeb3450bca5d919081900390a46001600160a01b0385163b611ba0575b505050505060019150611840565b303b156102af57611c0c5f94611bfa60019960405198899788976330f4182360e21b895260043560048a015260248901528c8060a01b031660448801528b8060a01b0316606487015260e0608487015260e4860190612991565b8481036003190160a486015290612991565b9060c4830152038183305af1611c26575b80808080611b92565b5f611c3091612a8d565b83611c1d565b600c54611c4e926001600160a01b03909116906137cf565b8b80611b08565b611c69866001600160a01b038c168461375d565b80611c76575b5050611b0b565b600c54611c8e926001600160a01b039091169061375d565b8b80611c6f565b9d8e825f525f209e5f5b601f1983168110611cef5750908d9e9f6001928c9d9e9f83601f9e98999a9b9c9d9e19811610611cd7575b505050811b019055611a59565b01515f1960f88460031b161c191690555f8f80611cca565b9f818f01518155600101906020019f6020019f909f611c9f565b919291600214611d1d575b50600190611840565b602001519081518201916080818403126102af57611d3d60208201613375565b9060408101516060820151916080810151906001600160401b0382116102af576020611d70928160019901920101613389565b92858060a01b031690611d8482151561305e565b611d8f811515612f1c565b60ff6003604051611dbe8383895193602081818d01968088835e81016008815203019020015460081c16612d4c565b602060405188518084835e8101906008825282818d8060a01b039303019020541697604051928391518091835e81016008815203019020015460101c165f14611e3557611e0b91846137cf565b80611e1a575b50505b90611d14565b611e2e91848060a01b03600c5416906137cf565b8380611e11565b611e3f918461375d565b80611e4c575b5050611e14565b611e6091848060a01b03600c54169061375d565b8380611e45565b6004357fa74c8847d513feba22a0f0cb38d53081abf97562cdb293926ba243689e7c41ca5f80a2005b60405162461bcd60e51b815260206004820152600e60248201526d24b73b30b634b21039b4b3b732b960911b6044820152606490fd5b90919293602080611ef4600193607f198a82030186526040838a518051845201519181858201520190612991565b96019201920190929161163b565b60405162461bcd60e51b815260206004820152601860248201527f436f6d6d616e6420616c726561647920657865637574656400000000000000006044820152606490fd5b83356001600160401b0381116102af578201604060231982360301126102af5760405191604083018381106001600160401b03821117610cf757604052602482013583526044820135926001600160401b0384116102af57611fb3602094936024869536920101612ac9565b8382015281520193019261159c565b346102af575f3660031901126102af57611fda613152565b5f80546001600160a01b0319811682556001600160a01b03167f8be0079c531659141344cd1fd0a4f28419497f9722a3daafe3b4186f6b6457e08280a3005b346102af5760203660031901126102af576004355f52600660205260ff60405f2080549061204960018201612bd3565b61205560028301612bd3565b916120e060405161206d816109cf8160038701612c73565b6120d26004840154956120c463ffffffff6006600588015497015416966040519a8a63ffffffff8d9c168c5263ffffffff8160201c1660208d015260401c1660408b015261012060608b01526101208a0190612991565b9088820360808a0152612991565b9086820360a0880152612991565b9260c085015260e08401526101008301520390f35b346102af5760803660031901126102af5761210e612b0d565b612116612b33565b906044356001600160401b0381116102af575f926121fb61215c7ffb221ea26ff8d39542d6ce490a50b051d32f1059f001142eac494913bf4774cc933690600401612ac9565b63ffffffff606435951692838752600760205261217f60ff604089205416612edc565b6001600160a01b031661219381151561305e565b6121bd60ff6003604051602081875180838a01835e81016008815203019020015460081c16612d4c565b6121c8861515612f1c565b6121d286836131a9565b604051938452602084015260c060408401528560c084015260e0606084015260e0830190612991565b926080820152600260a08201528033930390a3005b346102af5760203660031901126102af57612229612b49565b612231613152565b6001600160a01b03165f8181526004602052604090205460ff161561229457805f52600460205260405f2060ff19815416905561226d816132ae565b507f10e1f7ce9fd7d1b90a66d13a2ab3cb8dd7f29f3f8d520b143b063ccfbab6906b5f80a2005b60405162461bcd60e51b815260206004820152600b60248201526a2737ba103932b630bcb2b960a91b6044820152606490fd5b346102af5760a03660031901126102af576004356001600160401b0381116102af576122f7903690600401612ac9565b6122ff612b33565b6044356001600160401b0381116102af5761231e903690600401612ac9565b90612327612b8b565b91608435918215158093036102af5761233e613152565b6040519060ff6003875193602081818b01968088835e81016008815203019020015460081c1661136457600360ff916112bf6123f7956040519261238184612a72565b60018060a01b03168352602083019081526112b560408401918b835286606086019b168b5260808501976001895260a086019a8b5260208d604051928391518091835e600890820190815203019020945185546001600160a01b0319166001600160a01b03919091161785555160018501612fa6565b51815462ff0000191690151560101b62ff000016179055600a54600160401b811015610cf75780600161242d9201600a55612d0b565b919091610e97576113328161244193612fa6565b7fdfc8b21b155f37b22bc6e8f14a4a9d1619c07bf564133b6488758981f952e5565f80a2005b346102af575f3660031901126102af5760206040515f8152f35b346102af5760a03660031901126102af5761249a612b0d565b6124a2612b33565b906044356001600160401b0381116102af576124c2903690600401612ac9565b606435906001600160401b0382116102af576125bb6125067ffb221ea26ff8d39542d6ce490a50b051d32f1059f001142eac494913bf4774cc933690600401612ac9565b6125ad63ffffffff608435961693845f52600760205261252c60ff60405f205416612edc565b61255660ff6003604051602081885180838b01835e81016008815203019020015460081c16612d4c565b612561871515612f1c565b6001600160a01b0388169761257f9089151590816125d05750612f67565b61258987846131a9565b8051602082012097604051958652602086015260c0604086015260c0850190612991565b908382036060850152612991565b926080820152600160a08201528033930390a3005b90503b15158a610fdc565b346102af575f3660031901126102af576001546040516001600160a01b039091168152602090f35b346102af5760203660031901126102af5763ffffffff612621612b0d565b165f526007602052602060ff60405f2054166040519015158152f35b346102af5760203660031901126102af576004356001600160401b0381116102af5761266d903690600401612ac9565b60405161269a60ff6003845193602081818801968088835e81016008815203019020015460081c16612d4c565b6126a2613152565b600360405160208185518086835e810160088152030190200161ff0019815416905560405160208184518085835e810160088152030190206bffffffffffffffffffffffff60a01b81541690555f5b600a548082101561282f576109cf61271861270b84612d0b565b5060405192838092612c73565b60208151910120845184201461273157506001016126f1565b9091505f19810190811161281b5761274b61275291612d0b565b5091612d0b565b919091610e975761276291612de7565b600a548015612807575f19019061277882612d0b565b929092610e97578261278d61279e9454612b9b565b90816127c4575b5050600a55612ec0565b7fcdd02d37d444f381ccea186dcdaf556989dcdeeebafc5cd307fe5e7609cd88c35f80a2005b81601f5f93116001146127db5750555b8380612794565b818352602083206127f791601f0160051c810190600101612d8e565b80825281602081209155556127d4565b634e487b7160e01b5f52603160045260245ffd5b634e487b7160e01b5f52601160045260245ffd5b50505061279e90612ec0565b346102af5760203660031901126102af576004356001600160401b0381116102af5760ff600360208061287381953690600401612ac9565b604051928184925191829101835e81016008815203019020015460081c166040519015158152f35b346102af5760203660031901126102af57610100816128ba5f93612a56565b82815282602082015282604082015260608082015260606080820152606060a08201528260c08201528260e082015201526004355f5260066020526109ea60405f2063ffffffff60066040519261291084612a56565b60ff81548481168652848160201c16602087015260401c16604085015261293960018201612bd3565b606085015261294a60028201612bd3565b6080850152604051612963816109cf8160038601612c73565b60a0850152600481015460c0850152600581015460e0850152015416610100820152604051918291826129b5565b805180835260209291819084018484015e5f828201840152601f01601f1916010190565b6020815263ffffffff825116602082015263ffffffff602083015116604082015260ff604083015116606082015261012063ffffffff610100612a39612a23612a0d6060880151866080890152610140880190612991565b6080880151878203601f190160a0890152612991565b60a0870151868203601f190160c0880152612991565b9460c081015160e086015260e08101518286015201511691015290565b61012081019081106001600160401b03821117610cf757604052565b60c081019081106001600160401b03821117610cf757604052565b90601f801991011681019081106001600160401b03821117610cf757604052565b6001600160401b038111610cf757601f01601f191660200190565b81601f820112156102af57602081359101612ae382612aae565b92612af16040519485612a8d565b828452828201116102af57815f92602092838601378301015290565b6004359063ffffffff821682036102af57565b6024359063ffffffff821682036102af57565b602435906001600160a01b03821682036102af57565b600435906001600160a01b03821682036102af57565b604435906001600160a01b03821682036102af57565b606435906001600160a01b03821682036102af57565b6064359060ff821682036102af57565b90600182811c92168015612bc9575b6020831014612bb557565b634e487b7160e01b5f52602260045260245ffd5b91607f1691612baa565b9060405191825f825492612be684612b9b565b8084529360018116908115612c515750600114612c0d575b50612c0b92500383612a8d565b565b90505f9291925260205f20905f915b818310612c35575050906020612c0b928201015f612bfe565b6020919350806001915483858901015201910190918492612c1c565b905060209250612c0b94915060ff191682840152151560051b8201015f612bfe565b5f9291815491612c8283612b9b565b8083529260018116908115612cd75750600114612c9e57505050565b5f9081526020812093945091925b838310612cbd575060209250010190565b600181602092949394548385870101520191019190612cac565b915050602093945060ff929192191683830152151560051b010190565b6001600160401b038111610cf75760051b60200190565b600a54811015612d2357600a5f5260205f2001905f90565b634e487b7160e01b5f52603260045260245ffd5b8054821015612d23575f5260205f2001905f90565b15612d5357565b60405162461bcd60e51b8152602060048201526013602482015272151bdad95b881b9bdd081cdd5c1c1bdc9d1959606a1b6044820152606490fd5b818110612d99575050565b5f8155600101612d8e565b9190601f8111612db357505050565b612c0b925f5260205f20906020601f840160051c83019310612ddd575b601f0160051c0190612d8e565b9091508190612dd0565b919091828114612ebb57612dfb8354612b9b565b6001600160401b038111610cf757612e17816117b68454612b9b565b5f93601f8211600114612e5557612e4692939482915f92612e4a5750508160011b915f199060031b1c19161790565b9055565b015490505f80610c11565b601f198216905f5260205f2094835f5260205f20915f5b818110612ea357509583600195969710612e8b575b505050811b019055565b01545f1960f88460031b161c191690555f8080612e81565b9192600180602092868b015481550194019201612e6c565b509050565b602090604051918183925191829101835e81015f815203902090565b15612ee357565b60405162461bcd60e51b81526020600482015260116024820152702ab739bab83837b93a32b21031b430b4b760791b6044820152606490fd5b15612f2357565b606460405162461bcd60e51b815260206004820152602060248201527f416d6f756e74206d7573742062652067726561746572207468616e207a65726f6044820152fd5b15612f6e57565b60405162461bcd60e51b815260206004820152601060248201526f125b9d985b1a590818dbdb9d1c9858dd60821b6044820152606490fd5b91909182516001600160401b038111610cf757612fc7816117b68454612b9b565b6020601f8211600114613001578190612e469394955f92612ff65750508160011b915f199060031b1c19161790565b015190505f80610c11565b601f19821690835f52805f20915f5b8181106130465750958360019596971061302e57505050811b019055565b01515f1960f88460031b161c191690555f8080612e81565b9192602060018192868b015181550194019201613010565b1561306557565b60405162461bcd60e51b815260206004820152600f60248201526e496e76616c6964206164647265737360881b6044820152606490fd5b156130a357565b60405162461bcd60e51b815260206004820152600c60248201526b27b7363c903932b630bcb2b960a11b6044820152606490fd5b8051821015612d235760209160051b010190565b156130f257565b60405162461bcd60e51b815260206004820152600960248201526827b7363c9039b2b63360b91b6044820152606490fd5b3d1561314d573d9061313482612aae565b916131426040519384612a8d565b82523d5f602084013e565b606090565b5f546001600160a01b0316330361316557565b606460405162461bcd60e51b815260206004820152602060248201527f4f776e61626c653a2063616c6c6572206973206e6f7420746865206f776e65726044820152fd5b60ff60036040516020845191818601928084835e81019060088252828160018060a01b039303019020541694604051928391518091835e81016008815203019020015460101c165f1461325257613201821515612f1c565b61320c33151561305e565b803b156102af57604051632770a7eb60e21b815233600482015260248101929092525f908290604490829084905af1801561140d576132485750565b5f612c0b91612a8d565b90612c0b91613262821515612f1c565b61326d33151561305e565b613278811515613476565b604051916323b872dd60e01b60208401523360248401523060448401526064830152606482526132a9608483612a8d565b6135ff565b5f81815260036020526040902054801561336f575f19810181811161281b576002545f1981019190821161281b57808203613321575b5050506002548015612807575f19016132fe816002612d37565b8154905f199060031b1b191690556002555f5260036020525f6040812055600190565b613359613332613343936002612d37565b90549060031b1c9283926002612d37565b819391549060031b91821b915f19901b19161790565b90555f52600360205260405f20555f80806132e4565b50505f90565b51906001600160a01b03821682036102af57565b81601f820112156102af576020815191016133a382612aae565b926133b16040519485612a8d565b828452828201116102af57815f926020928386015e8301015290565b519063ffffffff821682036102af57565b156133e557565b60405162461bcd60e51b8152602060048201526014602482015273092dcecc2d8d2c840e0c2f2d8dec2c840d0c2e6d60631b6044820152606490fd5b805f52600360205260405f2054155f1461347157600254600160401b811015610cf75761345a6133438260018594016002556002612d37565b9055600254905f52600360205260405f2055600190565b505f90565b1561347d57565b60405162461bcd60e51b815260206004820152600d60248201526c24b73b30b634b2103a37b5b2b760991b6044820152606490fd5b9060418151145f146134de576134da91602082015190606060408401519301515f1a906136e2565b9091565b50505f90600290565b60058110156135eb57806134f85750565b600181036135455760405162461bcd60e51b815260206004820152601860248201527f45434453413a20696e76616c6964207369676e617475726500000000000000006044820152606490fd5b600281036135925760405162461bcd60e51b815260206004820152601f60248201527f45434453413a20696e76616c6964207369676e6174757265206c656e677468006044820152606490fd5b60031461359b57565b60405162461bcd60e51b815260206004820152602260248201527f45434453413a20696e76616c6964207369676e6174757265202773272076616c604482015261756560f01b6064820152608490fd5b634e487b7160e01b5f52602160045260245ffd5b9061365f9160018060a01b03165f806040519361361d604086612a8d565b602085527f5361666545524332303a206c6f772d6c6576656c2063616c6c206661696c6564602086015260208151910182855af1613659613123565b9161383d565b80518061366a575050565b81602091810103126102af57602001518015908115036102af5761368a57565b60405162461bcd60e51b815260206004820152602a60248201527f5361666545524332303a204552433230206f7065726174696f6e20646964206e6044820152691bdd081cdd58d8d9595960b21b6064820152608490fd5b7f7fffffffffffffffffffffffffffffff5d576e7357a4501ddfe92f46681b20a08411613752576020935f9360ff60809460405194855216868401526040830152606082015282805260015afa1561140d575f516001600160a01b0381161561374a57905f90565b505f90600190565b505050505f90600390565b906132a9612c0b9392613771841515612f1c565b6137856001600160a01b038416151561305e565b6001600160a01b03169161379a831515613476565b60405163a9059cbb60e01b60208201526001600160a01b03919091166024820152604480820194909452928352606483612a8d565b6137da831515612f1c565b6137ee6001600160a01b038316151561305e565b6001600160a01b031691823b156102af576040516340c10f1960e01b81526001600160a01b039290921660048301526024820152905f908290604490829084905af1801561140d576132485750565b9192901561389f5750815115613851575090565b3b1561385a5790565b60405162461bcd60e51b815260206004820152601d60248201527f416464726573733a2063616c6c20746f206e6f6e2d636f6e74726163740000006044820152606490fd5b8251909150156138b25750805190602001fd5b60405162461bcd60e51b8152602060048201529081906138d6906024830190612991565b0390fdfea2646970667358221220308f2d0725aae1e934e4e072c706c277d04737ccb12f562c9e57441da772a91764736f6c634300081f0033",
    "sourcePath": "f:/Work_DI/DI-XFI-Contracts/contracts/DIGateway.sol",
    "compiler": {
        "name": "solc",
        "version": "0.8.31+commit.fd3a2265"
    },
    "functionHashes": {
        "COMMAND_APPROVE_CONTRACT_CALL()": "082711b2",
        "COMMAND_APPROVE_CONTRACT_CALL_WITH_MINT()": "6e00f5d8",
        "COMMAND_SEND_TOKEN()": "c0874976",
        "CROSSFI_CHAIN_ID()": "848fd450",
        "MESSAGE_TYPE_CONTRACT_CALL()": "516745aa",
        "MESSAGE_TYPE_CONTRACT_CALL_WITH_TOKEN()": "bd6e1672",
        "MESSAGE_TYPE_TOKEN_TRANSFER()": "21cf02c6",
        "_safeExecuteCall(bytes32,uint32,address,address,bytes)": "a332413c",
        "_safeExecuteCallWithToken(bytes32,uint32,address,address,bytes,string,uint256)": "c3d0608c",
        "addChain(uint32)": "eaf8ddfe",
        "addRelayer(address)": "dd39f00d",
        "addToken(string,address,string,uint8,bool)": "5fc79880",
        "approvedPayloads(bytes32)": "bc527b41",
        "bridgeTokenRegistry()": "28ca3c91",
        "bridgeTransactions(bytes32)": "6c63f971",
        "callContract(uint32,address,bytes)": "903d8a50",
        "callContractWithToken(uint32,address,bytes,string,uint256)": "36427a51",
        "commandExecuted(bytes32)": "307d624e",
        "deployToken(string,string,uint8,uint32,string)": "8d8d83b8",
        "execute(bytes32,(uint256,bytes)[],bytes)": "77e8ac6f",
        "feeInBps()": "a0a7299b",
        "feeReceiver()": "b3f00674",
        "getAllRelayers()": "e7001c60",
        "getBridgeFee()": "85659de1",
        "getBridgeTransaction(bytes32)": "0024a1b8",
        "getSupportedTokens()": "d3c7c2c7",
        "getTokenAddress(string)": "c4091236",
        "isCommandExecuted(bytes32)": "d26ff210",
        "isTokenSupported(string)": "0d3652ec",
        "logBridgeTransaction(bytes32,uint32,uint32,uint8,string,string,bytes,bytes32,bytes32)": "b1f10fd2",
        "owner()": "8da5cb5b",
        "removeRelayer(address)": "60f0a5ac",
        "removeToken(string)": "1f455922",
        "renounceOwnership()": "715018a6",
        "sendToken(uint32,address,string,uint256)": "613d4159",
        "setBridgeFee(uint256)": "998cdf83",
        "setFeeReceiver(address)": "efdcd974",
        "supportedChains(uint32)": "248514dd",
        "supportedTokens(string)": "89919cdd",
        "tokenList(uint256)": "9ead7222",
        "transferOwnership(address)": "f2fde38b",
        "whitelisted(address)": "d936547e"
    },
    "gasEstimates": {
        "creation": {
            "codeDepositCost": "2921600",
            "executionCost": "infinite",
            "totalCost": "infinite"
        },
        "external": {
            "COMMAND_APPROVE_CONTRACT_CALL()": "174",
            "COMMAND_APPROVE_CONTRACT_CALL_WITH_MINT()": "461",
            "COMMAND_SEND_TOKEN()": "835",
            "CROSSFI_CHAIN_ID()": "527",
            "MESSAGE_TYPE_CONTRACT_CALL()": "350",
            "MESSAGE_TYPE_CONTRACT_CALL_WITH_TOKEN()": "813",
            "MESSAGE_TYPE_TOKEN_TRANSFER()": "241",
            "_safeExecuteCall(bytes32,uint32,address,address,bytes)": "infinite",
            "_safeExecuteCallWithToken(bytes32,uint32,address,address,bytes,string,uint256)": "infinite",
            "addChain(uint32)": "29689",
            "addRelayer(address)": "108018",
            "addToken(string,address,string,uint8,bool)": "infinite",
            "approvedPayloads(bytes32)": "infinite",
            "bridgeTokenRegistry()": "2412",
            "bridgeTransactions(bytes32)": "infinite",
            "callContract(uint32,address,bytes)": "infinite",
            "callContractWithToken(uint32,address,bytes,string,uint256)": "infinite",
            "commandExecuted(bytes32)": "2487",
            "deployToken(string,string,uint8,uint32,string)": "infinite",
            "execute(bytes32,(uint256,bytes)[],bytes)": "infinite",
            "feeInBps()": "2806",
            "feeReceiver()": "2896",
            "getAllRelayers()": "infinite",
            "getBridgeFee()": "2652",
            "getBridgeTransaction(bytes32)": "infinite",
            "getSupportedTokens()": "infinite",
            "getTokenAddress(string)": "infinite",
            "isCommandExecuted(bytes32)": "3081",
            "isTokenSupported(string)": "infinite",
            "logBridgeTransaction(bytes32,uint32,uint32,uint8,string,string,bytes,bytes32,bytes32)": "infinite",
            "owner()": "2741",
            "removeRelayer(address)": "73291",
            "removeToken(string)": "infinite",
            "renounceOwnership()": "28380",
            "sendToken(uint32,address,string,uint256)": "infinite",
            "setBridgeFee(uint256)": "25968",
            "setFeeReceiver(address)": "28651",
            "supportedChains(uint32)": "2504",
            "supportedTokens(string)": "infinite",
            "tokenList(uint256)": "infinite",
            "transferOwnership(address)": "29069",
            "whitelisted(address)": "3210"
        },
        "internal": {
            "_approveContractCall(bytes32,bytes memory)": "infinite",
            "_approveContractCallWithMint(bytes32,bytes memory)": "infinite",
            "_burnToken(address,address,uint256)": "infinite",
            "_executeCommand(bytes32,struct IDIGateway.Command memory)": "infinite",
            "_handleBurnAndLockToken(string memory,uint256)": "infinite",
            "_handleReleaseToken(address,string memory,uint256,uint256)": "infinite",
            "_lockToken(address,address,uint256)": "infinite",
            "_mintToken(address,address,uint256)": "infinite",
            "_sendToken(bytes memory)": "infinite",
            "_unlockToken(address,address,uint256)": "infinite",
            "_validateBurn(address,uint256)": "infinite",
            "_validateLock(address,uint256,address)": "infinite",
            "_validateMint(address,uint256)": "infinite",
            "_validateUnlock(address,uint256,address)": "infinite",
            "recoverSigner(bytes32,bytes memory)": "infinite"
        }
    }
}